:0300000002025D9C
:0C025D00787FE4F6D8FD75816E0202A4E3
:1006C40002310000015C00015D00015900015A0083
:1006D40002210000015B07052C3456789015015E59
:0406E40000015F00B2
:1006E900E4FDFCC3ED9FEC9E50167B6C7A00EB1B7E
:1006F9008A8370011A458370F50DBD00010C80E3F2
:0107090022CD
:0A083A008FE7E5E630E1FBAFE722AF
:02078C00AE05B8
:10078E00C2E912083AAD07AF0612083AD2E9AF0530
:01079E002238
:0C07BB00C2E912083AE4FF12083AD2E941
:0107C700220F
:060614008B108A1189120F
:10061A00C2E912083AAE07E4FDEDC395135017E498
:10062A00FF12083AAB10AA11A9128D82758300EF46
:0A063A001200AE0D80E3D2E9AF0616
:010644002293
:0605E2008B098A0A890B57
:1005E800C2E912083AAE07E4FDEDC3950C5018AB0A
:1005F80009050BE50BAA0A7002050A14F912005640
:0B060800FF12083A0D80E2D2E9AF06B5
:0106130022C4
:0C07D500C2E87D0F7F2012078CD2E822C2
:10045100C2E8D2EAD2B943B90243A9027FE87E03D6
:100461001206E97B007A00792C750C057F301205A4
:10047100E27B007A00792C750C057F2A1205E27D5A
:10048100017F2112078C7D017F2212078C7D1A7F4B
:100491002412078C7D287F2512078C7D0F7F261261
:0904A100078C7D097F3102078CF4
:03004B000201812E
:10018100C0E0C0F0C083C082C0D075D000C000C044
:1001910001C002C003C004C005C006C0077F07122A
:1001A10007BB8F2020060302023B7B007A007923E4
:1001B1007513097F611206147B007A0079531207C7
:1001C1002BC3EF941BEE6480948050637B007A0014
:1001D1007953AD231204AA7B007A007953AD24121E
:1001E10004AA7B007A007953AD251204AA7B007A18
:1001F100007953AD261204AA7B007A007953AD270A
:100201001204AA7B007A007953AD281204AA7B005C
:100211007A007953AD291204AA7B007A007953AD93
:100221002A1204AA7B007A007953AD2B1204AAB2D8
:1002310095B281E4FD7FE212078C7D707F27120762
:100241008CD007D006D005D004D003D002D001D085
:0C02510000D0D0D082D083D0F0D0E032BA
:030053000202E9BD
:1002E900C0E0C0F0C083C082C0D075D000C000C0DB
:0D02F90001C002C003C004C005C006C0075C
:1003060085E114E51430E222055DE5DA30E0137587
:100316005901E55E7027FB7A00795312072B8FDAB5
:10032600802B755900755A018023E51430E01EE5CF
:1003360059B40116E51420E114E55E60107B007ADD
:0D0346000079531205028FDA800385DA5E1C
:10035300D007D006D005D004D003D002D001D000FE
:0B036300D0D0D082D083D0F0D0E032A8
:0C07E100E4F593F5947595FF7596FF22E2
:0E079F00438901758C2F758AABD2A9D28C22AA
:100673007F011208247F021207AD7F01120819AF10
:100683005B1200037F011207F87F0112080EE4FFDB
:0A06930012080343A60443B8042232
:100645001207E1120451750B00750C00750D337519
:100655000E207B007A00795312000E1206731207E2
:0E0665009FD2AF1207D53006FDE4F52080F8D5
:03000B000203F1FC
:1003F100C0E0C0F0C083C082C0D075D000C000C0D2
:1004010001C002C003C004C005C006C007758C2F1F
:10041100758AAB0522E52270020521B296C394FAD2
:10042100E5219400400F7B007A00795312072BEFEE
:100431004E6002B281D007D006D005D004D003D0DF
:1004410002D001D000D0D0D082D083D0F0D0E03221
:10000E008B088A09890AAB0BAA0CA90DC003C00282
:10001E00C001AB08AA09A90A1200F0E50E14AB083C
:10002E00AA09A90A9000031200AE900004E412007F
:08003E00AE900005E40200AEE3
:1004AA008B0F8A10891190000512006FFF900004CB
:1004BA0012006FFCC39FFF90000312006FFE5FB52E
:1004CA000604E4FEFF22AB0FAA10A9111200D08C79
:1004DA0082758300ED1200AEAB0FAA10A91190002D
:1004EA000412006F04FF90000312006F5F90000473
:0804FA001200AE7E007F01221A
:060502008B158A16891713
:1005080090000512006FFF90000412006FC39FFF58
:1005180090000312006FFE5FD394004027900005FF
:1005280012006FFF1200D08F8275830012006FFDDA
:10053800EF04AB15AA16A9175E9000051200AEAF1E
:08054800057E00227EFF7FFF0B
:010550002288
:0D07C80090000312006F2401FFE433FE22B5
:10072B0090000512006FFF90000412006FC39FFF33
:0D073B0090000312006FFDE4FEEF5DFF2251
:0B0748007FFA7E001207537FFA7E004C
:0F0753000000000000EF1F70011E144E70F22214
:10077800AD07AC06120748120748ED1D70011C149E
:040788004C70F1229E
:0B07ED00EF600443E2802253E27F2211
:0B07F800EF600443E2402253E2BF2206
:0B080300EF600453E2DF2243E22022FA
:0B080E00EF600453E2EF2243E21022EF
:06000300EF547FF5D92245
:0E07AD00EF25E025E0FFE5E254F34FF5E222F0
:0B081900EF700443E2022253E2FD22D4
:0B082400EF600443E2012253E2FE22D9
:0B082F00EF600475E1DF2275E120227C
:10070A00AE077F01120824AF061207ADE4FF1208F4
:10071A001943A60443B804E4F5E10F12082FC2C234
:01072A0022AC
:10069D00E4751BFFF51AF519F51885E11CE51C54D9
:1006AD0001F51DE51C5402F51E7F0A7E001207534D
:0606BD00E51D60E6AF1C24
:0106C3002214
:1007620043E210EF25E04DF5DA12069DEF30E1038A
:050772007F00227F0161
:01077700225F
:06059E008B618A62896393
:1005A400E4FD1207628F65AF641564EFD3940040D5
:0605B40027E565B40122F9
:1005BA00AB610563E563AA627002056214F9120071
:1005CA0056F5DA12069D8F66E56630E1D4E4F565E4
:0705DA0080CF43E220AF6572
:0105E10022F7
:060551008B688A69896ACB
:100557007D011207628F6CE56C700312036EAF6B3F
:10056700156BEF602FE56C602BE56B700343E220A2
:1005770012069DAB68056AE56AAA697002056914E7
:10058700F9E5DA12009CEF20E1047F0180027F0089
:060597008F6C80CAAF6CFE
:01059D00223B
:10036E00E5E2540CF56E5390F3E59454F3440CF51A
:10037E009475E20375E20775E206E59454F34408BA
:10038E00F5947F057E001207535394F37F057E008C
:10039E00120753E4F56DE59454F34404F5947F0588
:1003AE007E001207535394F37F057E001207530508
:1003BE006DE56DC3940840DE7F057E00120753E5A0
:1003CE009454F34404F5947F057E00120753E5948C
:1003DE0054F3440CF59475E20775E203E56E44039D
:0203EE00F5E236
:0103F00022EA
:10026900020645E493A3F8E493A34003F68001F260
:1002790008DFF48029E493A3F85407240CC8C33396
:10028900C4540F4420C8834004F456800146F6DF65
:10029900E4800B01020408102040809006C4E47E2B
:1002A900019360BCA3FF543F30E509541FFEE4935A
:1002B900A360010ECF54C025E060A840B8E493A321
:1002C900FAE493A3F8E493A3C8C582C8CAC583CA4C
:1002D900F0A3C8C582C8CAC583CADFE9DEE780BE04
:0106E8000011
:10005600BB010689828A83E0225002E722BBFE02A8
:09006600E32289828A83E49322DB
:10006F00BB010CE58229F582E5833AF583E0225046
:10007F0006E92582F8E622BBFE06E92582F8E22290
:0D008F00E58229F582E5833AF583E49322AA
:10009C00BB010689828A83F0225002F722BBFE0143
:0200AC00F3223D
:1000AE00F8BB010DE58229F582E5833AF583E8F088
:1000BE00225006E92582C8F622BBFE05E92582C834
:0200CE00F2221C
:1000D000BB010789828A830201515005E9F80201B8
:1000E0003FBBFE05E9F802016389828A830201753C
:1000F000BB011A89828A83D0F0D0E0F8D0E0F9D031
:10010000E0FAD0E0FBE8C0E0C0F002015A5016E986
:10011000F8D083D082D0E0F9D0E0FAD0E0FBC08202
:10012000C083020148BBFE16E9F8D083D082D0E03C
:0F013000F9D0E0FAD0E0FBC082C08302016C225C
:09013F00E6FB08E6FA08E6F922E5
:09014800EBF608EAF608E9F622DC
:09015100E0FBA3E0FAA3E0F922AF
:09015A00EBF0A3EAF0A3E9F022A6
:09016300E2FB08E2FA08E2F922CD
:09016C00EBF208EAF208E9F222C4
:0C017500E493FB740193FA740293F922E6
:00000001FF
